:100000000C9446000C9465000C9465000C946500FB
:100010000C9465000C9465000C9465000C946500CC
:100020000C9465000C9465000C9465000C946500BC
:100030000C9465000C94B0010C9465000C94650060
:100040000C9465000C9465000C9465000C9465009C
:100050000C9465000C9465000C9465000C9465008C
:100060000C9465000C9465000C9465000C9465007C
:100070000C9465000C9465000C9465000C9465006C
:100080000C9465000C9465000C94650011241FBE4F
:10009000CFEFD0E4DEBFCDBF11E0A0E0B1E0EAE6F3
:1000A000F7E000E00BBF02C007900D92A432B10749
:1000B000D9F721E0A4E2B1E001C01D92A033B2075C
:1000C000E1F70E9467030C94B3030C940000CF93F4
:1000D000DF93CDB7DEB781E00E948E000000DF9194
:1000E000CF910895CF93DF93CDB7DEB784E690E04C
:1000F0000E94320188E30E948E0086E00E948E00FA
:100100008FE00E948E0081E00E948E008AE090E0E5
:100110000E9432010000DF91CF910895CF93DF93C9
:100120001F92CDB7DEB789838BE290E02BE230E0FF
:10013000F90120812F7BFC01208388E290E0298156
:10014000FC0120838BE290E02BE230E0F90120817A
:100150002068FC01208300008BE290E02BE230E07D
:10016000F90120812F77FC01208382E090E00E943A
:10017000320100000F90DF91CF910895CF93DF936C
:100180001F92CDB7DEB789838BE290E02BE230E09F
:10019000F90120812064FC01208388E290E029811C
:1001A000FC0120838BE290E02BE230E0F90120811A
:1001B0002068FC01208300008BE290E02BE230E01D
:1001C000F90120812F77FC01208381E090E00E94DB
:1001D000320100000F90DF91CF910895CF93DF930C
:1001E00000D000D0CDB7DEB78A837C836B830E94BA
:1001F00067008A81898311C0898191E0980F998372
:100200000E941B018B819C819C012F5F3F4F3C838F
:100210002B83FC0180810E94BE008B819C81FC01AC
:100220008081882349F700000F900F900F900F9066
:10023000DF91CF910895CF93DF931F92CDB7DEB7B3
:1002400089838981813128F4898181580E948E00B7
:1002500004C0898181550E948E0000000F90DF91BB
:10026000CF910895CF93DF9300D000D000D0CDB7C9
:10027000DEB79E838D831A82198213C01C821B8273
:1002800006C000008B819C8101969C838B838B81AF
:100290009C8187309340ACF389819A8101969A833F
:1002A000898329813A818D819E812817390734F30A
:1002B000000026960FB6F894DEBF0FBECDBFDF91CB
:1002C000CF910895CF93DF93CDB7DEB781E890E06B
:1002D0002BE0FC01208388E890E02DE730E0FC0172
:1002E000318320838FE690E022E0FC01208384E8C4
:1002F00090E0FC0111821082809100019091010137
:10030000A0910201B09103018093250190932601F1
:10031000A0932701B09328018FE590E02FE530E00E
:10032000F90120812068FC0120830000DF91CF913A
:100330000895CF93DF93CDB7DEB781E890E0FC015D
:1003400010820000DF91CF910895CF93DF93CDB756
:10035000DEB781E0809324010000DF91CF91089502
:100360001F920F9200905F000F92112400905B008B
:100370000F922F933F934F935F936F937F938F933E
:100380009F93AF93BF93EF93FF93CF93DF93CDB73B
:10039000DEB78091250190912601A0912701B091AF
:1003A00028010197A109B1098093250190932601A5
:1003B000A0932701B09328018091250190912601F7
:1003C000A0912701B0912801892B8A2B8B2B91F4C6
:1003D0000E94A5018091000190910101A09102016C
:1003E000B09103018093250190932601A0932701EA
:1003F000B09328010000DF91CF91FF91EF91BF9161
:10040000AF919F918F917F916F915F914F913F91AC
:100410002F910F9000925B000F9000925F000F9061
:100420001F901895CF93DF9300D000D0CDB7DEB7E3
:1004300069837A838B839C8389819A81AB81BC8118
:100440008093000190930101A0930201B0930301F6
:100450008091000190910101A0910201B0910301EE
:100460008093250190932601A0932701B093280142
:1004700000000F900F900F900F90DF91CF91089593
:10048000CF93DF9300D01F92CDB7DEB789837B83F4
:100490006A8389818A3031F48A819B81BC018DE035
:1004A0000E94400280EC90E0FC018081882F90E067
:1004B00080729927892BB1F386EC90E02981FC01A9
:1004C000208380E090E00F900F900F90DF91CF910C
:1004D0000895CF93DF93CDB7DEB780912E01909131
:1004E0002F0181309105E9F08130910518F00297D4
:1004F00089F147C080E290E0FC0180818095809383
:100500002B0180912B01813039F481E090E09093B0
:100510002F0180932E0135C010922F0110922E01D1
:1005200030C080E290E0FC018081809580932C01B6
:1005300080912C01882339F482E090E090932F0180
:1005400080932E011EC081E090E090932F01809354
:100550002E0117C080E290E0FC018081809580939D
:100560002D0180912D01813029F410922F011092DC
:100570002E0106C082E090E090932F0180932E011F
:10058000000080912E0190912F018130910509F496
:100590003EC08130910520F0029709F47CC092C0E2
:1005A00085E290E020912901022E000C330B220FEE
:1005B000331F2E5E3E4FF90120813181FC012083E3
:1005C00080912A01882329F4809129018F5F8093EB
:1005D000290180912A01813029F4809129018150DB
:1005E0008093290180912901833034F081E0809348
:1005F000290181E080932A018091290188230CF050
:100600005FC081E08093290110922A0159C085E2E0
:1006100090E0FC0180818230A9F48091180189303A
:1006200088F4809118018F5F8093180181E00E9407
:100630001B0180911801805D0E94BE0082E00E9433
:100640001B011AC085E290E0FC0180818230A1F09C
:1006500080911801882381F0809118018150809346
:10066000180181E00E941B0180911801805D0E94A9
:10067000BE0082E00E941B0180911801893058F071
:1006800081E00E941B0169E171E081E00E94EE00BF
:100690008CE00E941B0180911801893098F085E060
:1006A000809318010E94670081E00E941B018091E5
:1006B0001801805D0E94BE0082E00E941B0102C002
:1006C000000001C000000000DF91CF910895CF939A
:1006D000DF93CDB7DEB784E290E02FEFFC012083FB
:1006E00085E290E021E0FC01208381E290E0FC01C2
:1006F000108282E290E02FEFFC01208387E290E0FD
:100700002FEFFC01208388E290E0FC0110828AE256
:1007100090E02FEFFC0120838BE290E0FC0110823F
:100720006CE271E080E090E00E9412020E9462019F
:1007300010922F0110922E010E94720081E00E94FF
:100740001B0180911801805D0E94BE0082E00E9422
:100750001B010E9469020000809124018823E1F3BB
:0A07600010922401F6CFF894FFCFA9
:10076A00010000000000000200000000400200003A
:10077A000000010002000400054E69636520576FFE
:04078A00726B00008E
:00000001FF
